:020000040800F2
:10000000B8120020A1010008E1370008D93100082A
:10001000DD370008F11000087544000800000000FA
:10002000000000000000000000000000613B00082C
:10003000F51000080000000091390008E13C0008BC
:10004000BB010008BB010008BB010008BB010008A0
:10005000BB010008BB010008BB010008BB01000890
:10006000BB010008BB010008BB010008BB01000880
:10007000BB010008BB010008BB010008BB01000870
:10008000BB010008BB010008BB010008BB01000860
:10009000BB010008BB010008BB010008BB01000850
:1000A000BB010008BB010008BB010008BB01000840
:1000B000BB010008BB010008CD3D0008BB010008E2
:1000C000BB010008BB010008BB010008BB01000820
:1000D000BB010008BB01000859440008BB0100082F
:1000E000BB010008BB010008BB010008BB01000800
:1000F000BB010008BB010008BB010008BB010008F0
:10010000BB010008BB010008BB010008BB010008DF
:10011000BB010008BB010008BB010008BB010008CF
:10012000BB010008BB010008BB010008BB010008BF
:10013000BB010008BB010008BB010008BB010008AF
:10014000BB010008BB010008BB010008BB0100089F
:10015000BB010008BB010008BB010008BB0100088F
:10016000BB010008BB010008BB010008BB0100087F
:10017000BB010008BB010008BB0100080000000033
:10018000BB010008BB010008DFF810D000F082FCC2
:100190000048004715520008AFF30080B812002055
:1001A0000648804706480047FEE7FEE7FEE7FEE711
:1001B000FEE7FEE7FEE7FEE7FEE7FEE79D3D0008FF
:1001C00089010008930814D090ED032AD0ED000AAD
:1001D00090ED011AD0ED021A22EE002A60EE800A9C
:1001E00021EE001A61EE801AE1EC040A10305B1E69
:1001F000EAD112F0030208BF7047B2F1004F24D2D7
:10020000002AD8BF7047001F091F12F0010F07D046
:10021000D0ED010A001D60EE800AC1ED010A091D42
:10022000520808BF704700BFD0ED010A60EE800A97
:10023000C1ED010AD0ED020A083060EE800AC1ED7E
:10024000020A0831521EEFD17047F0EC010A521E2B
:1002500060EE800AE1EC010AF7D1704770B44FF00C
:10026000000CB0EC010A4E1E6446B50832D000BF47
:10027000D0ED000A90ED011A0830B4EEE00AF1EE7C
:1002800010FA3CBFB0EE600A0CF10104B4EEC10AF2
:10029000F1EE10FA3CBFB0EE410A0CF10204D0EDD1
:1002A000000A90ED011A0830B4EEE00AF1EE10FAFF
:1002B0003CBFB0EE600A0CF10304B4EEC10AF1EEEB
:1002C00010FA3CBFB0EE410A0CF104046D1E0CF1B3
:1002D000040CCDD116F0030C18D0BCF1004F1AD28B
:1002E000BCF1000FC4BF002566460FDDD0ED000A4B
:1002F000F4EEC00AF1EE10FA04DD4C19B0EE600A1B
:10030000A4EB0C04001D6D1C761EEFD182ED000ADB
:100310001C6070BC7047F0EC010AB4EEE00AF1EE2C
:1003200010FA3CBFB0EE600AA1EB0C04BCF1010C6A
:10033000F1D1EBE79FED220A8B0812D090ED002A55
:1003400090ED011AD0ED020A30EE020AD0ED031A48
:1003500010305B1E30EE010A30EE200A30EE210A2A
:10036000ECD111F003031AD0B3F1004F20D2002BCF
:1003700015DD001F13F0010F04D0D0ED010A001DA0
:1003800030EE800A5B080AD0D0ED010A30EE800A18
:10039000D0ED020A08305B1E30EE800AF4D100EE88
:1003A000901AF8EE600A80EE201A82ED001A70476B
:1003B000F0EC010A5B1E30EE800AF9D1EFE7000095
:1003C000000000002DE9F05F0546002092469B46A4
:1003D00088460646814640241BE02846414647465B
:1003E000224600F08DF953465A46C01A914110D367
:1003F00011461846224600F074F92D1A67EB0108E1
:100400004F4622460120002100F06BF917EB00094E
:100410004E41201EA4F10104DFDC484631462A4645
:100420004346BDE8F09FD2B201E000F8012B491E1F
:10043000FBD270470022F6E710B513460A46044681
:100440001946FFF7F0FF204610BD2DE9FE4F81EA67
:10045000030404F0004421F0004100944FF0000B2D
:1004600023F0004350EA01045ED052EA03045BD05B
:10047000C3F30A54C1F30A552C44A4F2F334019493
:10048000A0FB0254C1F3130141F48011C3F3130321
:1004900043F4801301FB024400FB034E840A970AD5
:1004A00044EA815447EA8357A4FB076802958D0A02
:1004B00005FB07854FEA932C04FB0C542705029D8E
:1004C0004FEA065847EA1637B5EB08056EEB070CFE
:1004D000870E920E47EA811742EA8312A7FB0201B8
:1004E000B6EB0B0164EB00042B0D43EA0C335E18F2
:1004F00044EB1C50DA465146E7FB0201C5F31304F6
:100500004FEA0B3343EA14534FEA0432019C43EAA7
:100510000603A4F10C040294009CCDE900B400F0A1
:1005200093F903B0BDE8F08F00200146F9E72DE90B
:10053000F04D81EA030404F0004B21F0004514461D
:100540004FF0000A23F0004150EA050220D054EA9F
:1005500001021DD0C5F30A570246C5F31303C1F3C8
:100560001300C1F30A5640F4801543F48013A7EB3F
:100570000608101BD64608F2FD3873EB050002D3BF
:1005800008F1010801E092185B41B8F1000F03DAAD
:1005900000200146BDE8F08D00204FF48011064692
:1005A00084460EE0171B73EB050705D3121B63EBA4
:1005B000050306434CEA010C49084FEA3000921843
:1005C0005B4150EA0107EDD152EA030012D082EA02
:1005D000040083EA0501084305D0101BAB4106D295
:1005E0000122002306E000224FF0004302E06FF0FA
:1005F000010253101AEB06004CEB085110EB0A00F5
:1006000041EB0B01BDE8F04D00F00FB90EB540F223
:10061000334102910021CDE900110A460B4600F05A
:1006200013F903B000BDC1F30A5210B5C1F31301B1
:1006300040F2FF3341F480119A4201DA002010BDEC
:1006400040F233439A42A2F2334203DC524200F0BA
:1006500057F810BD904010BD00F0004230F000404F
:100660000AD0C10D01F56071C0F3160042EA0151D4
:10067000C20840071143704700200146704701F04F
:10068000004330B421F0004150EA010206D00A0DC7
:10069000A2F56072C1F31301002A02DC30BC002015
:1006A0007047440F44EAC104C100E01830BC00EBBD
:1006B000C25000F083B830B50B460146002020221E
:1006C000012409E021FA02F59D4205D303FA02F55F
:1006D000491B04FA02F52844151EA2F10102F1DCBF
:1006E00030BD202A04DB203A00FA02F100207047D6
:1006F0009140C2F1200320FA03F319439040704760
:10070000202A04DB203A21FA02F00021704721FA66
:1007100002F3D040C2F120029140084319467047CD
:100720000FB4002300B589B00CA900910B996FF0AC
:100730000042CB601E4B06931E4B07930423CDE96A
:1007400001321D4A089202466B46002000F060FA12
:1007500009B05DF814FB70B586B006464FF0FF3067
:100760000091CDE90101002015460C460490324667
:10077000694604A8FFF7D4FF02460498211825B162
:1007800008B1084600E020462860049800280DD0F3
:10079000002A02DD0098884208D0081B0094CDE9A9
:1007A00001043246694604A8FFF7BAFF06B070BDDF
:1007B000490E0008670E0008DD0A00080029A8BFDE
:1007C0007047401C490008BF20F00100704710B47A
:1007D000B0FA80FC00FA0CF050EA010404BF10BC2F
:1007E000704749B1CCF1200421FA04F411FA0CF15C
:1007F00018BF012121430843A3EB0C01CB1D4FEA95
:1008000000614FEA102042BF002010BC704700EB8F
:10081000C35010440029A4BF10BC7047401C4900BD
:1008200008BF20F0010010BC704710B5141E73F112
:10083000000408DA401C41F1000192185B411A43A0
:1008400001D120F0010010BD2DE9F04D92469B46EC
:1008500011B1B1FA81F202E0B0FA80F22032904692
:10086000FFF73FFF04460F4640EA0A0041EA0B014A
:1008700053465A46084313D0114653EA010019D093
:10088000C8F140025046FFF73BFF05460E46504672
:1008900059464246FFF725FF084305D0012004E0F2
:1008A00020463946BDE8F08D0020054346EAE07653
:1008B0002C4337430A986305E40AA0EB08000022A2
:1008C000FD0A44EA47540A3002D500200146E9E710
:1008D000010510196941DDE9084500196941BDE8C4
:1008E000F04DA2E72DE9FE4F804681EA0300C00FDC
:1008F0000C46009021F0004123F00045B8EB0200C7
:10090000A94105D24046214690461C460B46024668
:1009100023F00040104347D0270DC7F30A00C3F36C
:100920000A510290401A019040286BDAC3F3130079
:1009300040F4801B0098924620B10023D2EB030ABA
:1009400063EB0B0B01985946C0F140025046FFF78C
:10095000C8FE06460D4650465946019A00F0ACF8CE
:1009600010EB08006141002487EA115284EAE77322
:100970001A4340D0009A62B3019A012A4FEA075203
:1009800015DC001B61EB02014FF0004202EA075246
:10099000CDE90042001C41F5801132462B46FFF79D
:1009A00053FF03B0BDE8F08F40462146F9E7001B36
:1009B00061EB0201001C41F5801300185B41201817
:1009C000A2F5001747EB030140EAD570B6196D4157
:1009D00011E06D084FEA360645EAC0754FEA075246
:1009E000001B61EB0201001C41F5801149084FEA30
:1009F00030000019514132462B4603B0BDE8F04F9C
:100A0000FFF713BF0098012240000023D0EB020241
:100A100063EBE073009821464FEAE074B8EB000006
:100A200061EB0401E9E783F000435BE781F00041FB
:100A300058E7C1F30A52C1F3130140F2FF3341F406
:100A400080119A4202DA00200146704740F2334397
:100A50009A42A2F2334202DC5242FFF751BEFFF744
:100A600040BE000030B5041E71F1000404DB4FF0FD
:100A70000044404264EB0101141E73F1000405DBE5
:100A80001C464FF00043524263EB0403994208BFF7
:100A9000904230BD064C074D06E0E06840F001038F
:100AA00094E8070098471034AC42F6D3FFF770FB88
:100AB000E455000804560008202A06DBCB17203A2C
:100AC00041FA02F043EAE07306E041FA02F3D04053
:100AD000C2F120029140084319467047C0B24FF45A
:100AE000F05100F0D1B900002DE9FF4F087883B034
:100AF0009946FF2805D0491C2D2804D00024002049
:100B000008E000200BE00124F9E700EB800003EB94
:100B10004000491C0B78FF2BF7D104B14042002361
:100B20000293147819461D462D2C01D02B2C04D18C
:100B3000521C2D2C13D000240294AA461478FF2CAA
:100B40000FD00A25A3FB057801FB05814FF0000CAF
:100B500003FB0C11521CE3194AEB0101EEE70124DF
:100B6000EAE7814453EA010002D019F5C87F06DAAA
:100B700003980021C0E9001107B0BDE8F08F0025FF
:100B8000AE4E2F46DFF8B882184600F091F9CDE955
:100B90000001B9F1000002DAC9F1000400E00446E6
:100BA0000023A74A1AEB030B42EB045A12E0E007BA
:100BB00007D02A46334638464146FFF746FC0746EB
:100BC00088462A46334610461946FFF73EFC05463E
:100BD0000E466410002CEAD1DDE90001B9F1000FE6
:100BE0005A46534606DAFFF7A2FC3A464346FFF759
:100BF0009EFC05E0FFF729FC3A464346FFF725FC3B
:100C0000029A0AB181F00041039AC2E90001B3E7F8
:100C10002DE9FF4F1F468DB0D7E901464FF0FF3851
:100C20002E2045464FF000090B90B9696D1C0E98B7
:100C30008847396A824688470028F6D1BAF1FF3FD3
:100C40000AD024F4D064002E11DDBAF12B0F08D0A5
:100C5000BAF12D0F0BD102E0404611B08DE744F4FC
:100C60008064B9696D1C0E9888478246761E694675
:100C7000600501D52D2000E02B208DF8000001F14A
:100C8000010B0DF1200809E0B9696D1C0E98884729
:100C900082460F9844F40074761E0560002E02DD33
:100CA000BAF1300FF0D00B998A453ED144F0800460
:100CB00006E00F99681CA9F1010944F4007408606A
:100CC000B9696D1C761E0E98884782463028F0D090
:100CD0002BE00B998A4505D1200603D444F080040B
:100CE000761E18E0504603F01DFE08B30DF1130107
:100CF000761E44F400748B4508D2AAF130000BF83C
:100D0000010B200607D5A9F1010003E0200602D45B
:100D100009F101008146A00502D50F99681C086001
:100D2000B9696D1C0E9888478246002ED1DC53E0CD
:100D3000002E51DDBAF1650F02D0BAF1450F4BD14B
:100D4000A00549D5B9696D1C24F44074761E0E982F
:100D500088478246002E0CDD2B2804D0BAF12D0FD7
:100D600007D144F48074B9696D1C0E988847824697
:100D7000761EE00501D52D2100E02B2108F8011B8E
:100D8000CDF82C8021E00DF12901761E44F4007489
:100D900088450CD2AAF1300010F0FF0088F800005E
:100DA00002D10B99884509D908F1010806E0E00550
:100DB00001D5244801E042F20F708146B9696D1CEB
:100DC0000E98884782460F980560002E04DD504635
:100DD00003F0A8FD0028D6D1F9690E988847FF20B6
:100DE0008BF8000088F800000020069007904B4622
:100DF0006A4608A906A8FFF777FEA00502D46FF09F
:100E000001002AE714F0240F0AD0E00714D1DDE92D
:100E100006123868031D3B600068C0E900120BE051
:100E2000DDE90601FFF72BFC0146E00704D1386835
:100E3000021D3A600068016028460EE70000144079
:100E40000000F03FF1D8FFFF426842B1016811F89D
:100E5000013B23B1521EC0E9001218467047012120
:100E6000C160881E704742685AB1C368016843B9BF
:100E700083688B4205D0491E521CC0E90012002035
:100E800070474FF0FF3070477F2801D9002208E0FB
:100E9000064A02EB5002C007127800D1120902F094
:100EA0000F0201209040084070470000A455000840
:100EB0000EB540F2334202920022CDE900221346E1
:100EC000FFF7C2FC03B000BD70B58C1810F8015BD1
:100ED00015F0070301D110F8013B2A1106D110F8D3
:100EE000012B03E010F8016B01F8016B5B1EF9D1D7
:100EF0002B0705D40023521E0DD401F8013BFAE75D
:100F000010F8013BCB1A921C03E013F8015B01F8C7
:100F1000015B521EF9D5A142D8D3002070BD00005C
:100F200010B501222021154800F0E8FE0022102112
:100F3000124800F0E3FE022004F0FAF800F0DBF8BB
:100F4000FF21012000F09CF8012000F019F8022098
:100F500004F0EEF80021022000F092F803210120B5
:100F600000F08EF80021052002F070FE002106201E
:100F700002F06CFE00F0B6F810BD00000008024060
:100F800070B504460025002202210A4800F0B6FE92
:100F90006106080E00F032F800F00EF8054600F089
:100FA0000BF8054601220221024800F0A7FE284660
:100FB00070BD00000000024070B50024002517E05D
:100FC0006006040E012220210B4800F097FE8021CC
:100FD000094800F08BFE10B144F0010401E004F078
:100FE000FE0400222021044800F088FE681CC5B2DF
:100FF000082DE5DB204670BD0000024070B50446B8
:10100000254600220221124800F078FE00261BE04F
:1010100005F0800028B1012240210D4800F06EFE4D
:1010200004E0002240210A4800F068FE012220214D
:10103000074800F063FE6806050E002220210448E0
:1010400000F05CFE701CC6B2082EE1DB70BD000033
:101050000000024010B5044600220221074800F0BB
:101060004DFE200AFFF7CAFFE0B2FFF7C7FF0122DB
:101070000221024800F042FE10BD000000000240C4
:1010800070B504460D4600220221094800F036FEE4
:10109000012101EB4401C8B2FFF7B0FF2846FFF77A
:1010A000ADFF01220221024800F028FE70BD0000C1
:1010B0000000024010B5084808490860543008494B
:1010C000086015215438FFF7B5F91521024854304E
:1010D000FFF7B0F910BD00008C03002008020020CB
:1010E0000C02002010B54FF42040FFF7B3FF10BDF5
:1010F00000BFFEE7704710B54FF40540FFF7AAFFA9
:1011000010BD72B600BFFEE72DE9F0412DED028B58
:101110000646B0EE408A0024032500F009FB07468E
:10112000B0EE480A02F00AFD804601204C490860F2
:10113000C82003F0F7FF01204A49C1F89C02C820EB
:1011400003F0F0FF484840694CF2FF01084046496F
:101150004861C82003F0E6FF002041491C390860BF
:10116000C82003F0DFFF40484169701E00F0030013
:1011700041EA00203C494861C82003F0D3FF012028
:101180003849C1F89C02C82003F0CCFF00BF2DE015
:10119000354840694CF2FF01084033494861084630
:1011A0004169601C41EA80202F494861C82003F052
:1011B000B9FF00202A491C390860C82003F0B2FF9B
:1011C00007EA05006100C1F1080188402649496924
:1011D000084325494861C82003F0A4FF01202149A4
:1011E000C1F89C02A806050E601CC4B2032CCFDB1C
:1011F000032500242DE01C4840694CF2FF01084003
:101200001949486108464169201D41EA8020164974
:101210004861C82003F086FF002011491C3908608E
:10122000C82003F07FFF08EA05006100C1F1080152
:1012300088400D49496908430B494861C82003F0BB
:1012400071FF01200749C1F89C02A806050E601C29
:10125000C4B2042CCFDBBDEC028BBDE8F0810000F2
:10126000B802424200004242001002402DE9F04123
:101270002DED028B0646B0EE408A0024032500F0D7
:1012800057FA0746B0EE480A02F058FC80460120A3
:1012900051490860C82003F045FF01204F49C1F8BB
:1012A0009C02C82003F03EFF4D4840694CF2FF010C
:1012B00008404B4948610846416904F1080041EA89
:1012C000802047494861C82003F02CFF0020424994
:1012D0001C390860C82003F025FF41484169701E91
:1012E00000F0030041EA00203D494861C82003F0B6
:1012F00019FF01203949C1F89C02C82003F012FFF0
:1013000000BF2EE0364840694CF2FF0108403449E6
:1013100048610846416904F1090041EA80203049EA
:101320004861C82003F0FEFE00202B491C390860EC
:10133000C82003F0F7FE07EA05006100C1F10801CB
:10134000884027494969084325494861C82003F076
:10135000E9FE01202149C1F89C02A806050E601C87
:10136000C4B2032CCEDB032500242EE01C484069C8
:101370004CF2FF0108401A4948610846416904F1EE
:101380000C0041EA802016494861C82003F0CAFEDB
:10139000002011491C390860C82003F0C3FE08EA88
:1013A00005006100C1F1080188400D494969084301
:1013B0000B494861C82003F0B5FE01200749C1F878
:1013C0009C02A806050E601CC4B2042CCEDBBDEC4A
:1013D000028BBDE8F0810000B802424200004242A8
:1013E000001002402DE9F0412DED028B0646B0EED3
:1013F000408A0024032500F09BF90746B0EE480A16
:1014000002F09CFB8046012050490860C82003F090
:1014100089FE01204E49C1F8BC02C82003F082FEBB
:101420004C4800684CF2FF0108404A4908600846F1
:10143000016804F1080041EA802046490860C8209C
:1014400003F070FE00204149091D0860C82003F028
:1014500069FE40480168701E00F0030041EA002068
:101460003C490860C82003F05DFE01203849C1F8FE
:10147000BC02C82003F056FE00BF2EE035480068CD
:101480004CF2FF010840334908600846016804F146
:10149000090041EA80202F490860C82003F042FE7D
:1014A00000202A49091D0860C82003F03BFE07EA16
:1014B00005006100C1F10801884026490968084318
:1014C00024490860C82003F02DFE01202049C1F8FE
:1014D000BC02A806050E601CC4B2032CCEDB03259B
:1014E00000242DE01B4800684CF2FF010840194918
:1014F00008600846016804F10C0041EA80201549A3
:101500000860C82003F00EFE002013490860C820C0
:1015100003F008FE08EA05006100C1F108018840F7
:101520000C49096808430B490860C82003F0FAFD1C
:1015300001200749C1F8BC02A806050E601CC4B210
:10154000042CCFDBBDEC028BBDE8F081B802434236
:1015500000004342141802409C0242422DE9F0412F
:101560002DED028B0646B0EE408A0024032500F0E4
:10157000DFF80746B0EE480A02F0E0FA80460120A4
:1015800050490860C82003F0CDFD01204E49C1F844
:10159000BC02C82003F0C6FD4C4800684CF2FF01B5
:1015A00008404A4908600846016804F1080041EA19
:1015B000802046490860C82003F0B4FD002041495E
:1015C000091D0860C82003F0ADFD40480168701E89
:1015D00000F0030041EA00203C490860C82003F005
:1015E000A1FD01203849C1F8BC02C82003F09AFDD2
:1015F00000BF2EE0354800684CF2FF010840334937
:1016000008600846016804F1090041EA80202F497A
:101610000860C82003F086FD00202A49091D0860E3
:10162000C82003F07FFD07EA05006100C1F1080151
:10163000884026490968084324490860C82003F007
:1016400071FD01202049C1F8BC02A806050E601CEE
:10165000C4B2032CCEDB032500242DE01B48006818
:101660004CF2FF010840194908600846016804F17E
:101670000C0041EA802015490860C82003F052FDA3
:10168000002013490860C82003F04CFD08EA05005B
:101690006100C1F1080188400C49096808430B4901
:1016A0000860C82003F03EFD01200749C1F8BC02D4
:1016B000A806050E601CC4B2042CCFDBBDEC028B67
:1016C000BDE8F081B80243420000434214180240D2
:1016D0009C02424210B500201149887411484860AC
:1016E00000200880152048814FF47A70C8600020DF
:1016F00008749FED0D0A084680ED060A64200B4928
:10170000486008486430086142F2107088606420C4
:10171000C86000220321012000F06FF810BD000016
:1017200078080020400D0300000000002403002082
:101730003E2070472DE9F04705460E46002400275D
:10174000A046A14600BF1BE0002202210E4800F087
:10175000D5FA0020FFF752FC0020FFF74FFCFFF7FF
:101760002BFC8046FFF728FC074601220221064891
:1017700000F0C4FA47EA082925F81490601CC4B2A6
:10178000B442E1DBBDE8F087000002402DE9F04102
:1017900004460D4617469846069EEE2002F0E2F9F2
:1017A000B12002F0DFF9322002F0DCF9200A02F069
:1017B000D9F9E0B202F0D6F9280A02F0D3F9E8B27A
:1017C00002F0D0F9F8B202F0CDF9300A02F0CAF90D
:1017D000F0B202F0C7F93146404602F0CFF9FF20DF
:1017E00002F0C0F9FC2002F0BDF9FF2002F0BAF9C6
:1017F000FF2002F0B7F9BDE8F08170B504460D4650
:101800001646EE2002F0AEF9B12002F0ABF933201B
:1018100002F0A8F9200A02F0A5F9E0B202F0A2F95C
:10182000280A02F09FF9E8B202F09CF9F0B202F047
:1018300099F9FF2002F096F9FC2002F093F9FF20BD
:1018400002F090F9FF2002F08DF970BDF0B503466B
:1018500000BF5879012801D10220F0BD0120587144
:1018600000BF022018711868046802F0100640F6E4
:10187000FE70B0408443D1E9000640EA060502F05C
:10188000100005FA00F00443186804601868006846
:1018900002F01007C026BE40B0431E683060012031
:1018A000187100BF0020587100BF00BFD5E710B508
:1018B00004460CB9012010BD207920B900206071C8
:1018C000204600F009F8022020710020206101204C
:1018D00020710020EFE7000010B586B00446142107
:1018E00001A8FEF7A7FD1949206888422BD100BF47
:1018F000002000901648006840F00050144908602D
:101900000846006800F00050009000BF00BF00BF14
:10191000002000900E481038006840F001000C498B
:10192000103908600846006800F00100009000BF10
:1019300000BF10200190032002900020039001A915
:10194000044800F0D9F806B010BD00000074004053
:10195000403802400000024038B5044600200090A4
:101960002068009029B902F10800009D28440090E9
:1019700004E002F11400009D2844009000980360E8
:10198000002038BD10B5024600BF5079012801D1B2
:10199000022010BD0120507100BF0220107110689C
:1019A000006801F010040123A34018431368186075
:1019B00061B91068006800F03C003C2816D110683E
:1019C000406840F00100136858600FE0106800683C
:1019D00000F4701301F010043C20A040834205D1B4
:1019E0001068406840F002001368586001201071D0
:1019F00000BF0020507100BF00BFCAE770B50446A9
:101A0000A56D00F081F9064694F83500022808D04B
:101A10008020606500BF002084F8340000BF0120F2
:101A200070BD2068006820F01600216808602068FA
:101A3000406920F0800021684861206C08B9A06CE2
:101A400028B12068006820F008002168086020683C
:101A5000006820F001002168086010E000F054F9EF
:101A6000801B05280BD920206065032084F83500F1
:101A700000BF002084F8340000BF0320D0E72068B6
:101A8000006800F001000028E8D194F85C103F20C5
:101A90008840A860012084F8350000BF002084F849
:101AA000340000BF00BFBBE7014691F835000228B3
:101AB00003D08020486501207047052081F835005B
:101AC0000868006820F001000A6810600020F3E751
:101AD00070B5044600F018F906462546681C10B19A
:101AE00004480078054400BF00F00EF9801BA842AE
:101AF000FAD370BD08030020F8B502460B46002556
:101B0000002400200021D6E0012606FA01F51E6817
:101B100006EA0504AC4274D11E7906F00306012ED4
:101B200004D01E7906F00306022E13D190684F00F0
:101B30000326BE40B0434F00DE68BE403043906095
:101B4000506801268E40B0431E79C6F300168E40C1
:101B5000304350601E7906F00306032E09D0D0688A
:101B60004F000326BE40B0434F009E68BE40304346
:101B7000D0601E7906F00306022E13D1CF0802F1C1
:101B8000200656F827004E07F70E0F26BE40B0433A
:101B90004F07FF0E1E69BE403043CF0802F12006FA
:101BA00046F8270010684F000326BE40B0431E7958
:101BB00006F003064F00BE40304310605E6806F436
:101BC0004036002E76D000BF002600963C4E366888
:101BD00046F480463A4F3E603E46366806F48046FC
:101BE000009600BF00BF374E8F0856F827008E07BB
:101BF000370F0F26BE40B043334EB24202D100260B
:101C000024E057E0314EB24201D101261EE0304EB1
:101C1000B24201D1022619E02E4EB24201D1032672
:101C200014E02D4EB24201D104260FE02B4EB242F9
:101C300001D105260AE02A4EB24201D1062605E06E
:101C4000284EB24201D1072600E008268F073F0F39
:101C5000BE4030431B4E8F0846F82700224E3068A6
:101C6000A0435E6806F4801606B120431E4E306025
:101C7000361D3068A0435E6806F4001606B12043A6
:101C8000194E361D3060184E361F3068A0435E680E
:101C900006F4003606B12043134E361F3060361F5F
:101CA0003068A0435E6806F4803606B120430E4ECD
:101CB000083E3060491C1029FFF426AFF8BD000033
:101CC000443802400838014000000240000402404D
:101CD00000080240000C02400010024000140240C4
:101CE00000180240001C0240083C014002461369F3
:101CF0000B400BB1012000E0002070470AB1816168
:101D000001E00B04836170470148006870470000E0
:101D1000000300200348006803490978084401498A
:101D200008607047000300200803002010B50D482C
:101D3000006840F400700B4908600846006840F4F1
:101D4000806008600846006840F4807008600320E6
:101D500000F0A2F80F2000F007F800F02BF80020A8
:101D600010BD0000003C024070B504460E480078EB
:101D70004FF47A71B1FBF0F00C490968B1FBF0F552
:101D8000284600F061FC08B1012070BD102C07D27C
:101D900000222146501E00F041F80548046001E091
:101DA0000120F2E70020F0E7080300200C030020E8
:101DB0000403002008B500BF002000900E48006812
:101DC00040F480400C4908600846006800F48040F8
:101DD000009000BF00BF00BF00200090081F0068F7
:101DE00040F08050091F08600846006800F08050ED
:101DF000009000BF00BF08BD4438024001460846BD
:101E0000002809DB00F01F0301229A4043099B00D0
:101E100003F1E023C3F8002100BF70472DE9F05F14
:101E200080460D461646002702F066FC07463946F6
:101E30002A46334601F00700C0F1070ABAF1040F41
:101E400002D94FF0040A01E0C0F1070AD14600F1BF
:101E5000040ABAF1070F02D24FF0000A01E0A0F124
:101E6000030AD4464FF0010A0AFA09FAAAF1010A54
:101E70000AEA020A0AFA0CFA4FF0010B0BFA0CFB01
:101E8000ABF1010B0BEA030B4AEA0B042146404677
:101E900002F03AFCBDE8F09F00BF00F00702064BDD
:101EA00019684FF6FF031940044B0B4343EA022124
:101EB000014B196000BF70470CED00E00000FA050F
:101EC00000BF00BF00BF00BF00BFBFF34F8F00BF08
:101ED00000BF00BF0948006800F4E06008490843FB
:101EE000001D0649086000BF00BF00BFBFF34F8F51
:101EF00000BF00BF00BF00BF00BFFDE70CED00E06A
:101F00000000FA0570B504460D460CB9012070BDFD
:101F10005848006800F00700A84209D255490D70E2
:101F20000846006800F00700A84201D00120EEE753
:101F3000207800F0020002281DD1207800F0040073
:101F4000042805D14C48006840F4E0504A49086034
:101F5000207800F00800082805D14748006840F4C0
:101F60006040454908604448006820F0F000A168DE
:101F7000084341490860207800F00100A8B3606878
:101F8000012807D13C4808380068C0F34040B8B980
:101F90000120BCE76068022802D06068032807D1EE
:101FA000354808380068C0F3406048B90120AEE702
:101FB000314808380068C0F3400008B90120A6E79E
:101FC0002D48006820F00300616808432A49086032
:101FD000FFF79AFE064609E0FFF796FE801B41F2E6
:101FE0008831884202D9032091E707E0224800683F
:101FF00000F00C006168B0EB810FEDD11D48006866
:1020000000F00700A84209D91A490D700846006877
:1020100000F00700A84201D0012078E7207800F006
:102020000400042807D11448006820F4E050E16857
:10203000084311490860207800F00800082808D1FA
:102040000D48006820F46040216940EAC1000A4957
:10205000086000F03FF808490968C1F30311074A16
:10206000515CC8400649086006480068FFF77CFEDE
:1020700000204CE7003C0240083802408C55000824
:102080000C03002004030020014800687047000092
:102090000C03002000B5FFF7F7FF04490968C1F3FE
:1020A0008221034A515CC84000BD0000083802404C
:1020B0009C55000800B5FFF7E7FF04490968C1F324
:1020C0004231034A515CC84000BD0000083802405C
:1020D0009C5500082DE9F047002400250026A14664
:1020E0002548006800F00C0020B1042805D008281D
:1020F0003AD105E0DFF8849039E0DFF8849036E0EB
:102100001D48001F006800F03F041B48001F0068C6
:1021100000F4800078B11A481749091F0968C1F313
:102120008811A0FB01700146224600233846FEF7C5
:1021300049F905460EE011480F49091F0968C1F326
:102140008811A0FB01700146224600233846FEF7A5
:1021500039F905460848001F0068C0F30140401CDB
:102160004600B5FBF6F902E0DFF8109000BF00BFB3
:102170004846BDE8F0870000083802400024F4001B
:1021800000127A00F8B504460CB90120F8BD207899
:1021900000F00100002874D0F948006800F00C003D
:1021A00004280DD0F648006800F00C00082813D170
:1021B000F348001F006800F48000B0F5800F0BD1D9
:1021C000EF4808380068C0F34040002859D06068E4
:1021D000002856D10120D9E700BF6068B0F5803FE4
:1021E00008D1E7480838006840F48030E4490839ED
:1021F00008601EE06068B0F5A02F0DD1E0480838F7
:10220000006840F48020DE4908390860084600680C
:1022100040F4803008600CE0D9480838006820F4A9
:102220008030D749083908600846006820F48020CB
:10223000086000BF606890B1FFF766FD054606E0E4
:10224000FFF762FD401B642801D903209EE7CC48BC
:1022500008380068C0F340400028F1D011E0FFF7D3
:1022600053FD054606E0FFF74FFD401B642801D9EA
:1022700003208BE7C24808380068C0F340400028BC
:10228000F1D1207800F0020002285FD1BC4800683C
:1022900000F00C0058B1BA48006800F00C000828A3
:1022A0001CD1B748001F006800F48000B0B9B448E2
:1022B00008380068C0F3400020B1E068012801D070
:1022C000012063E7AE480838006820F0F800216973
:1022D00040EAC100AA490839086037E0E06800B365
:1022E0000120A8490860FFF70FFD054606E0FFF74B
:1022F0000BFD401B022801D9032047E7A0480838FE
:102300000068C0F340000028F1D09D4808380068FC
:1023100020F0F800216940EAC100994908390860B5
:1023200014E0002097490860FFF7EEFC054606E040
:10233000FFF7EAFC401B022801D9032026E790485A
:1023400008380068C0F340000028F1D1207800F080
:10235000080008282CD16069A8B101208A490860CA
:10236000FFF7D2FC054606E0FFF7CEFC401B022833
:1023700001D903200AE782486C300068C0F34000AE
:102380000028F1D014E000207F490860FFF7BCFC72
:10239000054606E0FFF7B8FC401B022801D90320E0
:1023A000F4E677486C300068C0F340000028F1D1B3
:1023B000207800F00400042870D1002770483830DD
:1023C000006800F0805090B900BF002000906C4879
:1023D0003830006840F0805069493831086008465C
:1023E000006800F08050009000BF00BF01276748E0
:1023F000006800F48070B0B96448006840F48070F0
:1024000062490860FFF780FC054606E0FFF77CFCA8
:10241000401B022801D90320B8E65C48006800F49C
:1024200080700028F2D000BFA068012808D154486D
:102430006830006840F001005149683108601DE0D3
:10244000A06805280DD14E486830006840F00400AF
:102450004B49683108600846006840F00100086098
:102460000CE047486830006820F0010044496831BA
:1024700008600846006820F00400086000BFA068FB
:10248000A8B1FFF741FC054609E0FFF73DFC401B02
:1024900041F28831884202D9032077E626E03848A5
:1024A00068300068C0F340000028EED013E0FFF76A
:1024B0002BFC054608E0FFF727FC401B41F2883162
:1024C000884201D9032061E62D4868300068C0F3D6
:1024D00040000028EFD1012F07D12948383000688B
:1024E00020F0805026493831086000BFA0690028DC
:1024F00045D02348006800F00C0008285DD0A06992
:10250000022845D100201F490866FFF7FDFB05465C
:1025100006E0FFF7F9FB401B022801D9032035E64E
:10252000174808380068C0F340600028F1D1D4E9AA
:1025300007010843616A40EA81110122A06AC2EBE7
:10254000500041EA00412C20005D41EA00600C4946
:10255000091F086001200B490866FFF7D5FB0546F7
:1025600006E0FFF7D1FB401B022801D903200DE64E
:10257000034808380068C0F340600028F1D049E003
:102580000838024000004742800E47420070004079
:10259000002021490866FFF7B7FB054606E0FFF774
:1025A000B3FB401B022801D90320EFE51B4800685C
:1025B000C0F340600028F2D12CE0A069012800D1CE
:1025C000E4E51648001D0668A069012820D006F43D
:1025D0008001E06981421BD106F03F01206A8142FF
:1025E00016D147F6C0703040616AB0EB811F0FD141
:1025F00006F440310122A06AC2EB5000B1EB004F5B
:1026000006D106F070612C20005DB1EB006F01D0A7
:102610000120BBE50020B9E5000047420038024038
:10262000042808D14FF0E021096941F004014FF07E
:10263000E022116107E04FF0E021096921F0040177
:102640004FF0E0221161704770B504462546681EC0
:10265000B0F1807F01D301200FE0681E4FF0E02130
:1026600048610F214FF0FF3002F04EF800204FF08C
:10267000E021886107200861002070BD7047704725
:1026800030B502460B4600BF92F83C00012801D14C
:10269000022030BD012082F83C0000BF022082F8F9
:1026A0003D00106844681068816824F07004186860
:1026B000044310684460184D1068A8421BD010688D
:1026C000B0F1804F17D0154D1068A84213D0144DAB
:1026D0001068A8420FD0134D1068A8420BD0124DBD
:1026E0001068A84207D0114D1068A84203D0104DC1
:1026F0001068A84205D121F0800158680143106894
:102700008160012082F83D0000BF002082F83C007B
:1027100000BF00BFBDE70000000001400004004012
:1027200000080040000C004000040140004001404F
:102730000018004010B504460CB9012010BD94F8F3
:102740003D0028B9002084F83C00204600F026F81F
:10275000022084F83D00211D206801F03FFB01208C
:1027600084F8460000BF84F83E0001213F20015557
:10277000402001554120015500BF00BF012084F8D1
:10278000420043200155442001554520015500BF1A
:10279000012084F83D000020D0E7000038B5044651
:1027A0000E492068884217D100BF002000900C48D5
:1027B000006840F004000A4908600846006800F01C
:1027C0000400009000BF00BF002211461E20FFF74A
:1027D00025FB1E20FFF712FB38BD0000000800405B
:1027E00040380240014691F83D00012801D0012007
:1027F0007047022081F83D000868C06840F0010081
:102800000B68D8601A4B086898421BD00868B0F172
:10281000804F17D0174B0868984213D0164B0868A2
:1028200098420FD0154B086898420BD0144B08689B
:10283000984207D0134B0868984203D0124B08689F
:1028400098420CD10868806800F00702062A0CD074
:102850000868006840F001000B68186005E008682F
:10286000006840F001000B6818600020C0E700001D
:10287000000001400004004000080040000C00403F
:102880000004014000400140001800400146086873
:10289000C06820F001000A68D06000BF0868006AC4
:1028A00041F21112104050B90868006A92101040AD
:1028B00028B90868006820F001000A68106000BFAD
:1028C000012081F83D00002070472DE9F0410446C9
:1028D0000D46002700BF94F83C00012802D10220D9
:1028E000BDE8F081012084F83C0000BF022084F89C
:1028F0003D002068866826F0770626F47F4620682B
:1029000086602868502833D00CDC202850D004DCA6
:1029100000284BD0102851D149E0302849D0402818
:102920004CD139E060282DD0702807D0B0F5805FF9
:1029300003D0B0F5005F41D10DE041E0D5E90213CD
:102940006A68206801F0B6FA2068866846F0770663
:102950002068866034E0D5E902136A68206801F0D7
:10296000A9FA2068806840F480402168886027E0E8
:10297000EA686968206801F0B1FA5021206801F026
:10298000A4FA1DE0EA686968206801F0BAFA6021DB
:10299000206801F09AFA13E0EA686968206801F09B
:1029A0009DFA4021206801F090FA09E000BF00BFC5
:1029B00000BF2968206801F088FA01E0012700BF04
:1029C00000BF012084F83D0000BF002084F83C00D7
:1029D00000BF384684E7704710B504462068006998
:1029E000C0F34000D8B12068C068C0F34000B0B167
:1029F0006FF002002168086101202077206880695B
:102A000000F0030018B12046FFF7E5FF05E020467F
:102A100000F0ADF8204600F0ABF8002020772068E9
:102A20000069C0F38000D8B12068C068C0F380009E
:102A3000B0B16FF00400216808610220207720689F
:102A4000806900F4407018B12046FFF7C4FF05E02C
:102A5000204600F08CF8204600F08AF8002020770D
:102A600020680069C0F3C000D8B12068C068C0F316
:102A7000C000B0B16FF00800216808610420207721
:102A80002068C06900F0030018B12046FFF7A3FFDB
:102A900005E0204600F06BF8204600F069F80020C1
:102AA000207720680069C0F30010D8B12068C068A2
:102AB000C0F30010B0B16FF0100021680861082069
:102AC00020772068C06900F4407018B12046FFF7F5
:102AD00082FF05E0204600F04AF8204600F048F862
:102AE000002020772068006900F0010058B12068BC
:102AF000C06800F0010030B16FF00100216808618A
:102B0000204600F037F820680069C0F3C01058B1C3
:102B10002068C068C0F3C01030B16FF08000216839
:102B200008612046FFF7AAFD20680069C0F3801005
:102B300058B12068C068C0F3801030B16FF0400019
:102B400021680861204600F02FF820680069C0F372
:102B5000401058B12068C068C0F3401030B16FF029
:102B60002000216808612046FFF789FD10BD7047ED
:102B70007047000010B50446084884420DD108484B
:102B8000006808490968884207D205490868096849
:102B9000091D034B196002F0EFFA10BD6407002015
:102BA000080200200C0200207047704770470000A8
:102BB0002DE9F84F0446206805682068C66820683B
:102BC00047694FF00009CA4605F00F09B9F1000F37
:102BD0000AD105F0200038B106F0200020B12046CF
:102BE00001F00AFABDE8F88FB9F1000F7CD007F0C8
:102BF000010018B906F49070002875D005F00100A6
:102C000030B106F4807018B1206C40F001002064EF
:102C100005F0040030B107F0010018B1206C40F05D
:102C20000200206405F0020030B107F0010018B185
:102C3000206C40F00400206405F0080048B106F064
:102C4000200010B907F0010018B1206C40F0080016
:102C50002064206C002846D005F0200028B106F042
:102C6000200010B1204601F0C7F920684069C0F388
:102C7000801A206C00F0080010B9BAF1000F2DD0B6
:102C8000204601F073F92068406900F040004028B8
:102C900020D100BF00BF2168143151E8001F21F08E
:102CA00040002168143141E80002002AF3D100BF3E
:102CB000A06B50B17548A16B0865A06BFEF7F4FEE0
:102CC00088B1A06B016D88470DE02046FFF76EFFCD
:102CD00009E009E02046FFF769FF04E02046FFF71E
:102CE00065FF002020647DE7206B012876D105F088
:102CF0001000002872D006F010000028FAD000BFA3
:102D000000200090206800680090206840680090D3
:102D100000BF00BF2068406900F0400040285ED13D
:102D2000A06B006840681FFA80F8B8F1000F54D01B
:102D3000A08D404551DDA4F82E80A06BC069B0F590
:102D4000807F43D000BF00BF21680C3151E8001FD5
:102D500021F4807021680C3141E80002002AF3D18F
:102D600000BF00BF00BF2168143151E8001F21F0EF
:102D700001002168143141E80002002AF3D100BFAC
:102D800000BF00BF2168143151E8001F21F040004E
:102D90002168143141E80002002AF3D100BF20204D
:102DA00084F83E000020206300BF00BF21680C3182
:102DB00051E8001F21F0100021680C3141E80002A9
:102DC000002AF3D100BFA06BFEF718FEA08DE28DA4
:102DD000801A81B22046FFF7E8FE03E740E0A08DAD
:102DE000E18D401A1FFA80F8E08DC0B3B8F1000FF2
:102DF00035D000BF00BF21680C3151E8001F21F41D
:102E0000907021680C3141E80002002AF3D100BF24
:102E100000BF00BF2168143151E8001F21F00100FC
:102E20002168143141E80002002AF3D100BF2020BC
:102E300084F83E000020206300BF00BF21680C31F1
:102E400051E8001F21F0100021680C3141E8000218
:102E5000002AF3D100BF41462046FFF7A6FEC1E697
:102E600005F0800030B106F0800018B1204601F076
:102E70007AFAB7E605F0400030B106F0400018B12C
:102E8000204601F0A9F8ADE600BFABE6593F0008C7
:102E900010B504460CB9012010BDA06900B100E0D6
:102EA00000BF94F83D0028B9002084F83C0020467B
:102EB00000F028F8242084F83D002068C06820F441
:102EC00000502168C860204601F012F920680069AE
:102ED00020F49040216808612068406920F02A00B1
:102EE000216848612068C06840F400502168C860CB
:102EF00000202064202084F83D0084F83E0000205B
:102F0000CAE7000010B586B00446142101A8FDF7F9
:102F100091FA57492068884231D100BF00200090C3
:102F20005448006840F010005249086008460068A4
:102F300000F01000009000BF00BF00BF0020009014
:102F40004C481438006840F001004A4914390860C0
:102F50000846006800F00100009000BF00BF4FF479
:102F6000C060019002200290002003900320049092
:102F70000720059001A94048FEF7BEFD75E03F49D6
:102F8000206888423AD100BF002000903948001FD5
:102F9000006840F400303749091F0860084600689F
:102FA00000F40030009000BF00BF00BF0020009080
:102FB00030481438006840F001002E491439086088
:102FC0000846006800F00100009000BF00BF0C2020
:102FD000019002200290002003900320049007201B
:102FE000059001A92448FEF787FD002211462620FE
:102FF000FEF714FF2620FEF701FF36E02049206887
:10300000884232D100BF002000901A48001F00689B
:1030100040F480201749091F08600846006800F442
:103020008020009000BF00BF00BF0020009011482A
:103030001438006840F002000E4914390860084650
:10304000006800F00200009000BF00BF4FF4406035
:10305000019002200290002003900320049007209A
:10306000059001A90748FEF747FD06B010BD000016
:10307000001001404438024000000240004400407B
:10308000004800400004024070B504460D46164654
:1030900094F83E00202816D105B10EB9012070BD6C
:1030A00000BF94F83C00012801D10220F7E701207D
:1030B00084F83C0000BF00202063324629462046A9
:1030C00001F02CF9EBE70220E9E7000070B50446B7
:1030D0000949206888420DD1A06A10F8015C284691
:1030E00002F048F900F046FC012204490448FFF7C9
:1030F000CBFF00BF70BD0000004400401E03002055
:10310000F00700202DE9F84F04460E461746994671
:103110004FF0000A94F83D0020285AD106B117B9A3
:103120000120BDE8F88F00BF94F83C00012801D1D0
:103130000220F6E7012084F83C0000BF0020206454
:10314000212084F83D00FEF7DFFD8246A784E78456
:10315000A068B0F5805F04D1206910B90025B046A1
:1031600002E035464FF0000800BF002084F83C0024
:1031700000BF1BE05346002280212046CDF800907E
:1031800001F021F908B10320CBE745B9B8F80000F8
:10319000C0F308002168486008F1020803E02878BD
:1031A000216848606D1CE08C401EE084E08C0028A3
:1031B000E0D15346002240212046CDF8009001F096
:1031C00002F908B10320ACE7202084F83D0000207C
:1031D000A7E70220A5E7704700BFFEE700B5002083
:1031E00007490860022001F07DFF01200549C1F870
:1031F0009402042001F076FF00200149086000BD20
:10320000948242420080424208B507A000680090C4
:1032100000F022F800F00AF801236A46032118465C
:1032200001F02AF908BD0000D000000000B5002020
:1032300007490860012001F055FF01200549C1F848
:103240009C021E2001F04EFF00200149086000BDD5
:103250009C8242420080424200B587B000BF0020FD
:1032600001904A48006840F001004849086008465B
:10327000006800F00100019000BF00BF00BF002007
:1032800001900846006840F00200086008460068A7
:1032900000F00200019000BF00BF00BF00200190BD
:1032A0000846006840F0100008600846006800F01A
:1032B0001000019000BF00BF00BF00200190084631
:1032C000006840F0800008600846006800F0800058
:1032D000019000BF00BF00BF0020019008460068B9
:1032E00040F0400008600846006800F0400001908F
:1032F00000BF00BF30200290012003900020049006
:103300000320059002A92248FEF7F6FB41F20400D3
:10331000029002A91F48FEF7EFFB7C20029002A951
:103320001D48FEF7E9FB0820029002A91B48FEF7A2
:10333000E3FB4FF49860029002A91948FEF7DCFB0A
:1033400000201849086001201749C1F88C020020AC
:103350001449203908601349103908601149091FC0
:10336000086010490C3908600E49143908600D498D
:103370001C3908600B49243908600C490860091F92
:1033800008600B49C1F8980207B000BD3038024010
:1033900000000240000402400010024000180240F9
:1033A000001C0240A48242420080424294024242F7
:1033B0000000424210B50948007C28B9012291035F
:1033C0000748FEF79BFC08E00448007C012804D174
:1033D000002281030248FEF791FC10BD780800200E
:1033E0000018024000B587B000BF002001901C48C3
:1033F000006840F010001A4908600846006800F0B4
:103400001000019000BF00BF4FF4FF400290012068
:103410000390002004900320059002A91148FEF7B4
:103420006BFB00BF002001900D48006840F0400099
:103430000B4908600846006800F04000019000BF9A
:1034400000BF4FF47F4002900120039000200490C1
:103450000320059002A90448FEF74EFB07B000BD0B
:1034600030380240001002400018024010B5FFF74B
:10347000B9FF124890ED000A0320FDF745FE0F4802
:1034800090ED000A0320FDF7F1FE0D4890ED000AD3
:103490000320FDF7A7FF0A4890ED000A0320FEF77E
:1034A0005DF84FF4967001F031FE064840694CF229
:1034B000FF0108400349486110BD000010030020CF
:1034C00014030020001002401CB500200090019061
:1034D0000A480B4908600846FEF7E9F908B1FDF70C
:1034E00010FE00200090022001900022694604484E
:1034F000FEF7ACF908B1FDF704FE1CBD00740040F6
:103500005007002000B587B0142102A8FCF792FFF5
:1035100000BF002001906648006840F01000644938
:1035200008600846006800F01000019000BF00BF6E
:1035300000BF002001900846006840F004000860C9
:103540000846006800F00400019000BF00BF00BF03
:10355000002001900846006840F0200008600846FE
:10356000006800F02000019000BF00BF00BF0020F5
:1035700001900846006840F0800008600846006836
:1035800000F08000019000BF00BF00BF002001904C
:103590000846006840F0010008600846006800F036
:1035A0000100019000BF00BF00BF0020019008464D
:1035B000006840F0020008600846006800F0020061
:1035C000019000BF00BF00BF0020019008460068C6
:1035D00040F0400008600846006800F0400001909C
:1035E00000BF00BF012210213248FEF787FB0022F6
:1035F00060213048FEF782FB002240F2FF312E4866
:10360000FEF77CFB002262212C48FEF777FB0022AC
:1036100030212B48FEF772FB00224FF478412948F5
:10362000FEF76CFB702002900120039000200490B4
:103630000220059002A91F48FEF75EFA40F2FF3013
:10364000029001200390002004900220059002A91E
:103650001948FEF751FA62200290012003900020E1
:103660000490059002A91548FEF746FA80200290C2
:1036700000200390049002A91048FEF73DFA302084
:1036800002900120039000200490059002A90C48AC
:10369000FEF732FA4FF478400290012003900020A8
:1036A0000490059002A90748FEF726FA07B000BD6E
:1036B0003038024000100240001402400000024076
:1036C000000802400018024000B587B000200390B7
:1036D00004900590069001900290144814490860E7
:1036E000512048600021124881606321C16000219F
:1036F000016180218161FFF71DF808B1FDF701FD2F
:103700004FF48050039003A90948FFF7DEF808B191
:10371000FDF7F7FC00200190029001A90448FEF794
:10372000AFFF08B1FDF7EDFC07B000BD0008004099
:103730006407002010B50B480B4908604FF4165081
:103740004860002108488160C16001610821416131
:1037500000218161C161FFF79BFB08B1FDF7D1FC3E
:1037600010BD000000100140AC07002010B50B4850
:103770000B4908604FF416504860002108488160EA
:10378000C16001610421416100218161C161FFF7D4
:103790007FFB08B1FDF7B5FC10BD00000044004000
:1037A000F007002010B50B480B4908604FF4E130DA
:1037B0004860002108488160C16001610C214161BD
:1037C00000218161C161FFF763FB08B1FDF799FC3E
:1037D00010BD0000004800403408002000BFFEE794
:1037E00000BFFEE730B520B9052902D10124044D00
:1037F000AC7420B90C2902D10224014DAC7430BD47
:103800007808002010B5029C10BD704770477047C3
:10381000F0B505ACF0CCF0BD7047000030B530B964
:10382000042904D14FF47A745443084DEC6030B944
:10383000082904D1054C22740024044DAC7418B935
:10384000112901D1014CA28230BD0000780800206E
:10385000704700002DE9F0412DED028B04460D4626
:1038600016461F46012C0ED1022D0CD1304600F019
:103870005FFFB0EE408AF0EE608A51EC180BFCF767
:10388000FEFE13490860012C0ED1092D0CD13046E3
:1038900000F04EFFB0EE408AF0EE608A51EC180B5B
:1038A000FCF7EDFE0B490860FFF7E0FD084890EDDE
:1038B000000A0621012000F0A3F9064890ED000A55
:1038C0000A21012000F09CF9BDEC028BBDE8F081DB
:1038D0001003002014030020704770477047000059
:1038E00010B50848007C022805D101228103064852
:1038F000FEF704FA05E000224FF400410248FEF70B
:10390000FDF910BD780800200018024070B52DEDBB
:10391000028B05460C46B0EE408A00EE104AB8EE27
:10392000400ADFED110AB4EEE00AF1EE10FA00DD14
:103930000E4C00EE104AB8EE400ADFED0D0AB4EE70
:10394000E00AF1EE10FA00D23224BCEEC80A10EE02
:10395000100A81B2284600F0F7FD2146284600F003
:1039600043FEBDEC028B70BD20BC3E4D00C2EB0B94
:103970000000484210B51921044801F09FFC04469C
:103980001CB12146014800F005F810BD9408002044
:10399000704700002DE9FF5F04460D466678A77862
:1039A00094F807802079E17840EA01201FFA80F935
:1039B000A079617940EA01201FFA80FA207A010695
:1039C000607A41EA0041A07A41EA0020E17A40EAC7
:1039D000010B0D2E2ED008DC012E0DD0032E0CD0A5
:1039E0000B2E2CD00C2E74D11FE00F2E30D0B12E08
:1039F0004DD0F72EF7D132E000BF4F4B5B79DFF8A7
:103A000038C19CF804C043EA0C239AB24A4BDB78D5
:103A1000DFF824C19CF802C043EA0C2399B2464B5C
:103A200058780023FFF759FF83E000210120FFF7BA
:103A300055FF7EE000210846FFF750FF79E0A81F00
:103A400082B200233C49891C0120FFF7E0FE70E0B0
:103A500000231A4619461846FFF7D9FE69E00023ED
:103A60003548C07934498979334A5279DFF8C8C07A
:103A7000CDE90203CDE900219CF804309CF8032035
:103A80009CF802109CF80100FFF7C2FE51E0012FE4
:103A900004D100214846FFF7BFFE48E0A8F110001E
:103AA0000C2842D2DFE800F0060D161D2441413BF0
:103AB00041412B34627A002351464846FFF792FE7B
:103AC00034E0002304F1080251464846FFF7C2FEE5
:103AD0002CE02DE000235A4651464846FFF796FE5B
:103AE00024E000235A4651464846FFF7B1FE1DE048
:103AF00000235A4651464846FFF787FE16E000204D
:103B00000090637A227A51464846FFF77BFE0DE02B
:103B1000227A002351464846FFF780FE06E0002245
:103B200051464846FFF7D8FE00E000BF00BF00E066
:103B300000BF00BFBDE8FF9F940800209FED061A5C
:103B4000C1EE000A9FED051A71EE600AFCEEE00A74
:103B500010EE900AC0B2704700008042000000439F
:103B60007047000001B54FF47A730122694602489C
:103B7000FFF7C8FA08BD0000AC07002070B5054685
:103B80000E46002404E0285DFFF7ECFF601C84B2C1
:103B9000B442F8DB70BD10B5044603E02078FFF7AF
:103BA000E1FF641C20780028F8D110BD70B50446F0
:103BB0000D461646EE20FFF7D5FFB120FFF7D2FFE6
:103BC0001020FFF7CFFF200AFFF7CCFFE0B2FFF78E
:103BD000C9FF280AFFF7C6FFE8B2FFF7C3FF304668
:103BE000FFF7D9FFFF20FFF7BDFFFC20FFF7BAFF6B
:103BF000FF20FFF7B7FFFF20FFF7B4FF70BD000005
:103C000030B52DED048B85B004460D46B0EE408AEC
:103C1000002002900390049018EE100AFCF71CFD9F
:103C200041EC190B8DED009B06A20C2102A800F0BF
:103C300049FD02AA29462046FFF7B8FF05B0BDECB2
:103C4000048B30BD252E33660000000070B504469D
:103C50000D4629462046FDF713FA70BD10B50848F9
:103C6000807C012805D10122C1020648FEF746F8F2
:103C700005E000224FF400610248FEF73FF810BD56
:103C8000780800200018024070B5124800691149F8
:103C90004968401A0F498968B0FBF1F0401C85B2B1
:103CA000002413E00B4840680A4A926802FB0401B2
:103CB0009FED090A0020FFF729FE01F087FA074867
:103CC00000EB840080ED000A601C84B2AC42E9DBAA
:103CD00070BD000024030020000048443803002089
:103CE00010B5FEF717F810BD00B593B0302107A846
:103CF000FCF7A0FB142102A8FCF79CFB00BF0020EE
:103D000001902448006840F080502249086008462D
:103D1000006800F08050019000BF00BF00BF00208D
:103D200001901D48006840F480401B490860084627
:103D3000006800F48040019000BF00BF01200790A0
:103D40000004089002200D9041050E9104210F916E
:103D5000A8211091022111910421129107A8FEF7C8
:103D600011FA08B1FDF7CDF90F200290022003905F
:103D7000002004904FF4A05005904FF4805006901E
:103D8000052102A8FEF7BEF808B1FDF7BAF913B095
:103D900000BD000040380240007000400348006849
:103DA00040F47000014908607047000088ED00E0B1
:103DB00010B5012203490448FFF766F901F0F2FA51
:103DC00010BD00001E030020F007002010B50248BF
:103DD000FEF702FE10BD00006407002010B5026867
:103DE000294B98420ED0B0F1804F0BD0274B984210
:103DF00008D0274B984205D0264B984202D0264B3C
:103E0000984203D122F070024B681A431E4B98422D
:103E100020D0B0F1804F1DD01C4B98421AD01C4BC3
:103E2000984217D01B4B984214D01B4B984211D08C
:103E30001A4B98420ED01A4B98420BD0194B98420D
:103E400008D0194B984205D0184B984202D0184B15
:103E5000984203D122F44072CB681A4322F08003C7
:103E60004C6943EA040202608B68C3620B68836298
:103E7000054B984202D0084B984201D10B6903636D
:103E80000123436110BD0000000001400004004018
:103E900000080040000C00400004014000400140C8
:103EA000004401400048014000180040001C004050
:103EB0000020004030B50C46816821F47F4142EA81
:103EC000032525432943816030BD0A46816821F0DE
:103ED000700142F0070319438160704730B50B460B
:103EE0001446026A056A25F001050562816921F020
:103EF000F00141EA041122F00A021A4381610262D0
:103F000030BD30B50B461446056A25F01005056234
:103F10008169026A21F4704141EA043122F0A00271
:103F200042EA03128161026230BD000010B5084808
:103F3000007C032805D0012211030648FDF7DEFEB0
:103F400005E000224FF480510248FDF7D7FE10BD76
:103F5000780800200018024070B50546AC6B0020C0
:103F6000E085E0842046FEF721FE70BD00BF00BF63
:103F700002680C3252E8002F22F4907102680C3271
:103F800042E80013002BF3D100BF00BF00BF02685E
:103F9000143252E8002F22F001010268143242E884
:103FA0000013002BF3D100BF016B01290ED100BF1C
:103FB00000BF02680C3252E8002F22F010010268A4
:103FC0000C3242E80013002BF3D100BF202180F80F
:103FD0003E1000210163704710B504462068C06898
:103FE00020F040002168C860202084F83D00204671
:103FF000FFF7F1F8002010BDF8B5044694F83E0034
:10400000222873D1A068B0F5805F0CD1206950B927
:104010000025A66A20684068C0F308003080A06AC6
:10402000801CA06215E0A56A0026A068B0F5805F3C
:1040300003D0A06828B9206918B9206840682870A2
:1040400004E02068406800F07F002870A06A401CEF
:10405000A062E08D401E80B2E085002844D1206837
:10406000C06820F020002168C8602068C06820F483
:1040700080702168C8602068406920F001002168D4
:104080004861202084F83E00206B012826D10020C2
:10409000206300BF00BF21680C3151E8001F21F0F0
:1040A000100021680C3141E80002002AF3D100BF62
:1040B0002068006800F0100010280AD100BF00201E
:1040C000009020680068009020684068009000BF61
:1040D00000BFA18D2046FEF768FD02E02046FEF7F6
:1040E000F5FF0020F8BD01E00020FBE70220F9E722
:1040F0002DE9F84F04462068006920F44050E1683B
:104100000843216808612169A06808436169084380
:10411000E169084300902068C06849F20C61884357
:10412000009908432168C8602068406920F4407005
:10413000A16908432168486176492068884203D014
:1041400075492068884203D1FDF7B4FF814602E03B
:10415000FDF7A0FF8146E069B0F5004F6CD1022069
:104160006168A0FB015003461920A9FB00700146BD
:104170002A463846FCF726F96421B0FBF1F04FEAF5
:10418000001A02206168A0FB01510B461920A9FB0F
:1041900000712A463846FCF715F98346022061680B
:1041A000A0FB015003461920A9FB00712A4638469E
:1041B000FCF708F96421B0FBF1F000EBC00101EB62
:1041C0000010ABEB8000322101EBC0006421B0FB9A
:1041D000F1F000F0F8000AEB400A02206168A0FB51
:1041E000015003461920A9FB007001462A463846B3
:1041F000FCF7E8F8834602206168A0FB0150034603
:104200001920A9FB00712A463846FCF7DBF8642127
:10421000B0FBF1F000EBC00101EB0010ABEB800054
:10422000322101EBC0006421B0FBF1F000F0070087
:104230005044216888606AE004206168A0FB015056
:1042400003461920A9FB007001462A463846FCF7B0
:10425000B9F8824604206168A0FB0150034619208A
:10426000A9FB007001462A463846FCF7ABF86421EA
:10427000B0FBF1F000EBC00101EB0010AAEB8000F5
:10428000322101EB00106421B0FBF1F000F0F00AE4
:1042900004206168A0FB017003461920A9FB0051AE
:1042A0003A462846FCF78EF86421B0FBF1F00AEBA1
:1042B000001A04206168A0FB01510B461920A9FBDC
:1042C00000712A463846FCF77DF883460420616871
:1042D000A0FB015003461920A9FB007001462A46A5
:1042E0003846FCF76FF86421B0FBF1F000EBC00139
:1042F00001EB0010ABEB8000322101EB00106421D8
:10430000B0FBF1F000F00F00504421688860BDE878
:10431000F88F0000001001400014014010B5034662
:1043200099629A85DA8500201864222083F83E007D
:1043300000BF002083F83C0000BF186928B118684E
:10434000C06840F480701C68E0601868406940F004
:1043500001001C6860611868C06840F020001C689B
:10436000E060002010BD014691F83D00212828D1D1
:104370008868B0F5805F0BD1086948B90A6A10886F
:10438000C0F308000B685860086A801C086205E0EA
:104390000B6A581C086218780B685860C88C401E5D
:1043A00080B2C88458B90868C06820F080000B68E3
:1043B000D8600868C06840F040000B68D8600020F2
:1043C00070470220FCE72DE9F04104460D461746F0
:1043D0009846069E34E0701C88B32EB1FDF794FC1D
:1043E000A0EB0800B0422BD900BF00BF21680C3100
:1043F00051E8001F21F4D07021680C3141E800021F
:10440000002AF3D100BF00BF00BF2168143151E87A
:10441000001F21F001002168143141E80002002A48
:10442000F3D100BF202084F83D0084F83E0000BF97
:10443000002084F83C0000BF0320BDE8F081FFE7C6
:10444000206800682840A84201D1012000E0002037
:10445000B842C0D00020F0E710B50448FEF7A8FB32
:10446000012203490148FEF70FFE10BDF0070020AE
:104470001E03002000BFFEE72DE9F04705460E466B
:10448000174698464FF00009CA4600240023A94663
:1044900000202B4908602B49C1F88C0200BF17E0AF
:1044A00000202749086009F08000802803D10120FE
:1044B000091F086003E000202149091F086001204E
:1044C0001F4908604FEA49604FEA1069581CC3B29F
:1044D000082BE5DB00201A490860002422E017F8C9
:1044E00004A0002317E00020154908600AF08000AE
:1044F000802803D10120091F086003E00020104933
:10450000091F086001200E4908604FEA4A604FEA1F
:10451000106A581CC3B2082BE5DB0020084908606C
:10452000601CC4B2B442DADBB8F1010F01D1FEF76E
:1045300055FE0120024908310860BDE8F0870000FF
:10454000848242420080424278B504460E460020F2
:10455000009046F48055E8B28DF8020028128DF8DC
:10456000010064B901231C4A19460020FFF784FFAB
:1045700001236A4603210620FFF77EFF2BE0012C72
:104580000CD10123154A19460020FFF775FF0123BE
:104590006A4603210620FFF76FFF1CE0022C0CD1B6
:1045A00001230F4A19460020FFF766FF01236A46E0
:1045B00003210620FFF760FF0DE0032C0BD1012340
:1045C000084A19460020FFF757FF01236A460321D6
:1045D0000620FFF751FF78BDEC010020ED0100201F
:1045E000EE010020EF01002070B52DED048B82B0AC
:1045F00004460E46002001903046FCF707F841ECD7
:10460000190B9FED2A0B53EC102BFBF71EFF41EC0F
:10461000180BFCF708F80546E8B28DF80700280AE1
:104620008DF80600280C8DF80500280E8DF8040082
:1046300064B901231F4A19460020FFF71DFF01231B
:1046400001AA04210846FFF717FF2BE0012C0CD12B
:104650000123194A19460020FFF70EFF012301AA82
:1046600004210846FFF708FF1CE0022C0CD10123AF
:10467000124A19460020FFF7FFFE012301AA042178
:104680000846FFF7F9FE0DE0032C0BD101230C4A7D
:1046900019460020FFF7F0FE032301AA0421084673
:1046A000FFF7EAFE02B0BDEC048B70BD95D626E89C
:1046B0000B2E2140EC010020ED010020EE01002036
:1046C000EF0100200FB47CB50C0009AD01D0611ED4
:1046D00000E00021CDE90001064B6A462946089812
:1046E00000F028F9002C02D0009A002111707CBC47
:1046F0005DF814FB3B50000802480068C0F302203C
:10470000704700000CED00E010B5002804DB0A073C
:10471000130E054A135406E00A07140E034A00F06C
:104720000F031B1FD45410BD00E400E018ED00E09F
:1047300030B583B0044600F017F89FED090B05462D
:104740008DED000B002221466846FCF704F8284650
:1047500000F020F89DED000B03B030BD000000001C
:1047600000000000000000000148006870470000E1
:104770002003002002E008C8121F08C1002AFAD155
:1047800070477047002001E001C1121F002AFBD1D1
:1047900070470000014908607047000020030020B6
:1047A0002DE9FF5F82B00021DDE90430020DDDF864
:1047B00040B0034318D044F61050A2F2FF324243F7
:1047C0001514119801281FD0A5EB0B00401C5FEABF
:1047D000000A4FF000064E4FDFF83891B0465046C1
:1047E00015D5CAF1000413E0119801244AA3012849
:1047F00001D16FEA0B010298119AC0E90031C0E9BA
:10480000024206B0BDE8F09FCBF10000DFE70446AE
:104810000021404A491842EB0450CDE9001012E053
:10482000E00707D032463B4640464946FBF70DFEBF
:104830008046894632463B4610461946FBF705FE40
:1048400006460F466410002CEAD1DDE90401DDE9DB
:104850000023BAF1000F06DAFBF7F7FD42464B469C
:10486000FBF7F3FD05E0FBF762FE42464B46FBF724
:104870005EFE04460E460022284BFCF7F3F803D8F0
:104880004FF0FF30014607E00022254B204631461D
:10489000FCF728F8FCF7CDF8102409E0002C0ADB1F
:1048A0000A220023FBF78EFD039B30321A55641E4B
:1048B00050EA0102F2D1641C039AC4F111031444BA
:1048C000119A012A03D0012208430DD10AE00843BE
:1048D00004D000204FF0110B119072E7A3EB0B05F1
:1048E0006D1E0DE05B4504DD4FF0000205F1010592
:1048F00004E003DA4FF00002A5F10105002AECD034
:1049000002981199C0E90231C0E9004579E7000039
:10491000000014400000F03F300000000000F043B1
:104920000000E03F30380A2801D201207047002003
:10493000704700002DE9FF4F95B09A46884606461D
:104940000025EEE1252877D100242746F94A0121E8
:10495000039400E0044316F8013F203B01FA03F002
:104960001042F7D130782A2811D06FF02F03307819
:10497000A0F13002092A16D8039A44F0020402EB8F
:10498000820203EB42021044761C0390EFE758F8D2
:10499000042B0392002A03DA504244F4005403909B
:1049A00044F00204761C30782E2816D116F8010F38
:1049B00044F004042A280DD06FF02F023078A0F1C3
:1049C0003003092B09D807EB870302EB4303C71811
:1049D000761CF3E758F8047B761C30786C280FD0EF
:1049E00006DC4C2817D068280DD06A2814D104E0C2
:1049F000742810D07A280FD10DE044F400140AE096
:104A000044F4801401E044F440147278824202D1EC
:104A100004F58014761C761C307866280BD013DCE5
:104A2000582877D009DC002875D04528F6D04628CC
:104A3000F4D047281AD193E118E0632835D06428D0
:104A400079D0652812D18BE1702873D008DC6728F3
:104A5000F1D069286FD06E280DD06F2806D1ACE058
:104A600073282CD0752874D0782853D052461799C3
:104A700090476D1C54E1C4F30250022809D003286A
:104A80000DD0D8F8001004280DD00D6008F10408EE
:104A900046E1D8F80010EA17C1E90052F6E7D8F865
:104AA00000100D80F2E70D70F0E718F8041B8DF888
:104AB000001000208DF80100EB46012003E058F8BB
:104AC00004BB4FF0FF3061074FF0000102D40DE04E
:104AD00009F101018946B9420FDA8145F8DB1BF87B
:104AE00009100029F4D108E009F101018946814249
:104AF000FADB1BF809100029F6D103985346A0EB06
:104B0000090721463846179A00F080FA284400EB3E
:104B1000090507E044E008E10DE01BF8010B5246EF
:104B200017999047B9F10109F7D253462146384603
:104B3000179AF2E039E00A21C4F302524FF0000B59
:104B40000091022A06D058F8040BC117032A09D095
:104B50000AE023E008F1070020F00702F2E8020172
:104B6000904605E000B2C117042A01D140B2C11736
:104B7000002906DA0A460021404261EB02012D229B
:104B800002E0220504D52B228DF80420012203E047
:104B9000E20701D02022F7E7914657E00A2100E022
:104BA00010214FF0000B00910BE010214FF0000B93
:104BB00044F004040827009103E008204FF0000BA4
:104BC0000090C4F30252022A05D058F8040B0021C9
:104BD000032A08D008E008F1070020F00702F2E8F5
:104BE0000201904603E080B2042A00D1C0B24FF027
:104BF000000922072AD53278702A07D0DDF800C0D4
:104C00008CF0100C5CEA0B0C05D00EE040228DF805
:104C10000420012208E050EA010306D030238DF879
:104C200004308DF8052002229146009B83F0080392
:104C300053EA0B030AD150EA010201D1620705D5FC
:104C400030228DF804204FF001097F1E3278582A57
:104C500004D039A20C920CAA02920BE03BA2F9E715
:104C60005B46009AFBF7AEFB0C9B9B5C029A521EC4
:104C70000292137050EA0102F2D1029804A9081AB4
:104C800000F1200B600702D524F4803400E00127F6
:104C90005F4502DDA7EB0B0000E0002000EB0B01FD
:104CA000009003984944401A0390E00306D4534609
:104CB0002146179A039800F0A9F90544002706E059
:104CC00001A85246C05D179990476D1C7F1C4F4547
:104CD000F6DBE0030CD553462146179A039800F003
:104CE00095F9054404E030205246179990476D1C11
:104CF0000099481E00900029F5DC08E0029802990E
:104D000052460078491C0291179990476D1CBBF1DF
:104D10000001ABF1010BF1DC5BE100F065F905444A
:104D2000761C307800287FF40DAE19B02846BDE817
:104D3000F08F000009280100303132333435363726
:104D400038396162636465660000000030313233D7
:104D50003435363738394142434445460000000077
:104D6000600700D4062708F1070020F00700F0E8EC
:104D70000223804603F0004C5FEA0C0001D097A0AC
:104D800009E0200501D596A005E0E00701D095A037
:104D900001E0AFF24C001390307823F00043652817
:104DA0000CD006DC452809D046281DD047287FD1E5
:104DB0003BE0662818D067287AD136E00021112F11
:104DC00001DB112000E0781CCDE9000104A90CA84A
:104DD000FFF7E6FCDDE90D010C9A4FF0000B07F13F
:104DE0000109109200914EE04FF000400097CDE98C
:104DF000011004A90CA8FFF7D3FCDDE90D020C9B00
:104E00000F994FF0000B91461093009211B9791C45
:104E100000EB0109B7EB090003D4C0F1FF3B07F138
:104E20000109A9EB0700019042E0012F00DA0127F8
:104E30000021112F01DD112000E03846CDE90001ED
:104E400004A90CA8FFF7ACFCDDE90D010C9A009158
:104E50004FF0000BB946109221070FD4009A4A4533
:104E600003DA914601E0A9F10109B9F1010F05DD6D
:104E7000109AA9F10101515C3029F4D0B84202DA4C
:104E800010F1040F03DA0121CDE9011010E0002830
:104E900003DC8344A9EB000102E0411C494500DD2D
:104EA0008946A0EB0B00401C01904FF0004002909F
:104EB000200705D40198484502DB4FF0FF300190F0
:104EC00000208DF84B0002980DF14B07B0F1004F18
:104ED00025D002200C902B200D90029800280CDA8F
:104EE000404202902D200D9007E00A210298FBF726
:104EF000E2FB3031029007F8011D0C99481E0C901E
:104F00000029F2DC02980028EFD1791E0D98087074
:104F1000307800F0200040F0450007F8020D11A89D
:104F2000C01BC01D02901398007800B1012000EB57
:104F30000901019801EBE071029801440398401ABD
:104F4000401E0390E00306D453462146179A039867
:104F500000F05CF805441398007818B15246179990
:104F600090476D1CE00323D553462146179A0398BA
:104F700000F04CF805441BE0BBF1000F07DB009884
:104F8000584504DD1098179910F80B0001E01799A7
:104F900030205246904701980BF1010B401E05F15D
:104FA0000105019004D12E205246179990476D1C9F
:104FB000B9F10001A9F10109DEDC05E017F8010BE8
:104FC0005246179990476D1C0299481E029000297D
:104FD000F4DC53462146179A03989EE62D00000004
:104FE0002B000000200000002DE9F04104460025C0
:104FF0001E461746880404D405E039462020B047F1
:105000006D1C641EF9D52846BDE8F0812DE9F041FC
:10501000044600251E469046C80301D5302700E00F
:105020002027880404D505E041463846B0476D1C6A
:10503000641EF9D52846BDE8F0814A68002A06D0EA
:105040000A68531C0B6010704868401E4860704727
:1050500000B587B000BF002001901548006840F0FF
:105060004000134908600846006800F040000190C5
:1050700000BF00BF142102A8FBF7DCF980200290DA
:105080000120039000200490059002A90948FCF734
:1050900033FD012280210748FCF730FEC820FCF7D1
:1050A00017FD002280210348FCF728FE07B000BD51
:1050B000303802400018024010B500210648FCF7C5
:1050C00061FC0648808A064951F8203000221146CA
:1050D0000148FCF741FC10BD500700207808002073
:1050E0001C02002000EB4001880000BF011EA0F15F
:1050F0000100FBD17047000010B504460420FDF705
:105100008FFA0148047010BD0000002030B504463D
:10511000002504E04FF47A7000F00AF86D1CA542F7
:10512000F8D330BD00BF411EC9B2081EFBD1704785
:1051300070B5034600224FF0E02675690D4E3678B3
:1051400003FB06F44FF0E026B16910E04FF0E026D3
:10515000B06988420BD0884202D20E1A324402E073
:105160002E1A0E4432440146A24200D300E0EDE77D
:1051700000BF70BD0000002010B504460821114892
:10518000FCF7D8FA0F480088A0F5FE40FD3800EE85
:10519000100AB8EEC00ADFED0C0A20EE200A84EDFA
:1051A000000A543407484088A0F5FE40FD3800EE60
:1051B000100AB8EEC00ADFED040A20EE200A84EDE2
:1051C000000A10BD28070020A0C29F3E08B5FBF7CB
:1051D00071FF0C480068FFF7CFFF0B48FDF702FB9B
:1051E00000BF08480068094909688842F9D10648A3
:1051F000FDF74CFB6A4615210548FBF79BF89DED32
:10520000000A08BD08020020640700200C020020EC
:105210008C030020FCF78AFDFEF766FDFEF772F9AD
:10522000FEF788FAFEF7A2FAFEF7BCFAFEF74CFA90
:10523000FEF74AF9A820FFF75FFFFDF7E5FFFBF750
:105240006FFEFCF747FAFEF7B3FDFFF701FF32E010
:105250001948807C20B101281AD002282AD126E0E2
:105260001548007C032806D1FFF726FFFEF7F6FC61
:10527000FEF75CFE0BE000F0B7F8FEF7EFFCFEF780
:1052800055FE00F0EDF8FEF795F8FEF729FB11E06A
:10529000FEF7E4FCFEF74AFE00F0E2F8FEF78AF8BB
:1052A000FEF71EFBFEF7F0FC00F0F6F802E000F05F
:1052B00069F900BF00BFCBE778080020F8B50446C5
:1052C0000D460026002000902FE0684600F038F8D8
:1052D0001948008820B99DF80000EE2800D024E08D
:1052E00015480088A84208DA9DF800101248028884
:1052F0000088401C104B1880A1549DF800000F49F5
:10530000096840EA01200D490860084600686FF40A
:105310004031884208D108480688002007490860C3
:10532000054908803046F8BD00BF00F04BF8002862
:10533000CBDC0020F7E700001C030020180300204E
:1053400001460B4840880A4A128890420FD008480C
:105350004288001D805C0870054A5288501CC217A4
:1053600000EBD2525212A0EB4222014B5A807047FE
:10537000AE08002001460A4B1B88581CC31700EBDF
:10538000D3535B12A0EB43239AB205484088904266
:1053900005D003480388001DC154001F02807047D8
:1053A000AE080020002004494880088003490860B6
:1053B0000349088070470000AE0800201803002051
:1053C0001C0300200748008800F50070054A528839
:1053D000811AC81701EBD0504012A1EB402080B2D7
:1053E00070470000AE08002010B51948007C50B985
:1053F0001748C068732200FB02F19FED160A0120D6
:10540000FEF784FA23E01248007C01281FD11048DF
:10541000C0684FF47A71B0FBF1F0322817D80C480D
:10542000C068B0FBF1F0401E0B4901EB800090ED2D
:10543000000ADFED0A0A20EE200ABCEEC00A10EED8
:10544000104A9FED040A21460120FEF75FFA10BDC5
:10545000780800200000FA43380200200024744934
:1054600010B50B48007C012802D00948007C28B9FF
:10547000012251030748FCF741FC08E00448007C86
:10548000022804D1002201030248FCF737FC10BDBA
:10549000780800200018024000B52DED028B83B083
:1054A000B3EE050AB0EE408A01AB02AABCEEC80A10
:1054B00010EE101A2E48FAF7D1FE9DED020AF7EE13
:1054C000000AB4EEE00AF1EE10FA03D2B7EE000AD9
:1054D0008DED020A9DED020ADFED260A80EE801AAC
:1054E000F0EE418ABCEEC80A10EE102A2049B0EE58
:1054F000680A0846FAF766FE1F48204908601C48FB
:105500001F490860002015E01D49096891ED000A57
:105510001B490968091D1A4ABCEEC00A116010EE49
:10552000101A164A1268117014490968491C134A66
:105530001160401C00EE100AB8EEC00AB4EEC80AB2
:10554000F1EE10FAE0D3002203210120FCF755F917
:10555000BCEEC80A10EE100A80B2074B00220321ED
:1055600000900120FCF712F903B0BDEC028B00BDE6
:105570003803002000007F43380700201802002075
:105580000802002010B5FCF79BFC10BD00000000D5
:1055900000000000010203040607080900000000E3
:1055A00001020304DDDDDDDDDCBBBBDDDDDDDDDDDA
:1055B000DDDDDDDD9888888888888888777777774B
:1055C0007788888885555556666666666666666617
:1055D00066688888833333322222222222222222C2
:1055E0002228888D045600080000002024030000B3
:1055F000C80E0008D458000824030020940F0000AF
:1056000084470008412D3D3B843F0420E98679848E
:105610003F09B8843FC8F6843FC235853FF874859A
:105620003F6AB4853F18F4853F0334863F2B748668
:105630003F91B4863F34F5863F1636873F367787ED
:105640003F95B8873F33FA873F103C883F2E7E88CE
:105650003F8CC0883FAB3D893FAFBB893F9C3A8AB6
:105660003F73BA8A3F383B8B3FEDBC8B3F13048CB2
:105670003F814B8C3F38938C3F39DB8C3F84238DAB
:105680003F196C8D3FF9B48D3F24FE8D3F9B478EB3
:105690003F5E918E3F6EDB8E3FE8678F3F78F58FE0
:1056A0003F2184903FE513913FC9A4913FCF3692AB
:1056B0003FFBC9923FB64B933F56CE933FDF519489
:1056C0003F53D6943FB55B953F06E2953F4A6996B6
:1056D0003F82F1963F7BCD973FF8AB983F058D9980
:1056E0003FAE709A3FFE569B3FAE7A9C3FAEA29D66
:1056F0003F16CF9E3F1AA0043A8004182BC02B807F
:105700003F9D57803F9983803FB3AF803FEBDB8065
:105710003F4208813FB734813F4B61813FFE8D811D
:105720003FD0BA813FC0E70830C414823FFF4182B6
:105730003F4E6F823FBC9C823FE4BE823F1DE182B0
:105740003F6803833FC525833F3548833FB66A835F
:105750003F498D833FEFAF833FA7D2833F71F583EE
:105760003F5381843F5F0E853F989C853F022C8686
:105770003FA2BC863F7A4E873F90E1873FE775881E
:105780003F830B893F69A2893F70148A3F34878A1F
:105790003FB8FA8A3FFD6E8B3F06E48B3FD3598CAE
:1057A0003F68D08C3FC5478D3FEEBF8D3FE4388EBC
:1057B0003FA8B28E3F3E2D8F3FA8A88F3FE7249091
:1057C0003FFDA1903FED1F913FBA9E913F651E9214
:1057D0003FF09E923F5E20933FE267943F25B59550
:1057E0003F4F08973F8661983F1020408003110388
:1057F000020314C8422309011A90041A24311AB270
:1058000004234D03231104236C0720355839B43D7C
:105810005839343E39B4883E0E2DB23EAE47E13E93
:1058200014AE073F52B81E3F8FC2353FCDCC4C3F20
:10583000AE47613FA4707D3FC3F5883F3333933F4C
:105840001AA0181812AC3F9A99B93F6666C63F7104
:105850003DCA3F3D0AD70C1EE63FE17AF42C2017E3
:10586000FD3F85EB01403D0A0740A4700D403333F6
:105870001340CDCC1C401E20409A9929081E304070
:10588000666636141A3C1C1A43141A49141A50142A
:105890001A56141A5C141E63400AD763141A701443
:1058A0001A76141A7C241A81081E8440295C8714F5
:1058B0001A8E101A9110180A9440C3F59840F628D1
:1058C0009C2C21321019E719E912F42D560E4D3F88
:0458D00004C100000F
:040000050800018965
:00000001FF
